{"abi":[{"type":"function","name":"a","inputs":[],"outputs":[{"name":"","type":"uint256","internalType":"uint256"}],"stateMutability":"view"}],"bytecode":{"object":"0x6080604052348015600e575f5ffd5b506001805f819055505060ac8060235f395ff3fe6080604052348015600e575f5ffd5b50600436106026575f3560e01c80630dbe671f14602a575b5f5ffd5b60306044565b604051603b9190605f565b60405180910390f35b5f5481565b5f819050919050565b6059816049565b82525050565b5f60208201905060705f8301846052565b9291505056fea2646970667358221220b4ca36d2a4e97a8e54144f74331882d7cb8b6ff68835eea16ba2b9de3ff0cc9664736f6c63430008220033","linkReferences":{}},"methodIdentifiers":{"a()":"0dbe671f"},"id":57}