{"abi":[{"type":"constructor","inputs":[{"name":"_c","type":"uint256","internalType":"uint256"}],"stateMutability":"nonpayable"},{"type":"function","name":"a","inputs":[],"outputs":[{"name":"","type":"uint256","internalType":"uint256"}],"stateMutability":"view"}],"bytecode":{"object":"0x608060405234801561000f575f5ffd5b506040516101d23803806101d283398181016040528101906100319190610081565b808161003d91906100d9565b805f81905550505061011a565b5f5ffd5b5f819050919050565b6100608161004e565b811461006a575f5ffd5b50565b5f8151905061007b81610057565b92915050565b5f602082840312156100965761009561004a565b5b5f6100a38482850161006d565b91505092915050565b7f4e487b71000000000000000000000000000000000000000000000000000000005f52601160045260245ffd5b5f6100e38261004e565b91506100ee8361004e565b92508282026100fc8161004e565b91508282048414831517610113576101126100ac565b5b5092915050565b60ac806101265f395ff3fe6080604052348015600e575f5ffd5b50600436106026575f3560e01c80630dbe671f14602a575b5f5ffd5b60306044565b604051603b9190605f565b60405180910390f35b5f5481565b5f819050919050565b6059816049565b82525050565b5f60208201905060705f8301846052565b9291505056fea26469706673582212208bcf7f4e4ac305a0e6bf46ad0d45562aeabcba5c3a93d1bb2705b25d7a7533d864736f6c63430008220033","linkReferences":{}},"methodIdentifiers":{"a()":"0dbe671f"},"id":57}