{"abi":[{"type":"function","name":"baba","inputs":[],"outputs":[],"stateMutability":"nonpayable"},{"type":"function","name":"callParent","inputs":[],"outputs":[],"stateMutability":"nonpayable"},{"type":"function","name":"callParentSuper","inputs":[],"outputs":[],"stateMutability":"nonpayable"},{"type":"function","name":"hip","inputs":[],"outputs":[],"stateMutability":"nonpayable"},{"type":"function","name":"pop","inputs":[],"outputs":[],"stateMutability":"nonpayable"},{"type":"function","name":"yeye","inputs":[],"outputs":[],"stateMutability":"nonpayable"},{"type":"event","name":"Log","inputs":[{"name":"msg","type":"string","indexed":false,"internalType":"string"}],"anonymous":false}],"bytecode":{"object":"0x6080604052348015600e575f5ffd5b5061037c8061001c5f395ff3fe608060405234801561000f575f5ffd5b5060043610610060575f3560e01c80630ca21e9c14610064578063370ea1421461006e578063572e47ae14610078578063a4ece52c14610082578063b92a50e01461008c578063fa030ef114610096575b5f5ffd5b61006c6100a0565b005b6100766100d7565b005b61008061010e565b005b61008a610118565b005b61009461014f565b005b61009e610159565b005b7fcf34ef537ac33ee1ac626ca1587a0a7e8e51561e5514f8cb36afa1c5102b3bab6040516100cd90610258565b60405180910390a1565b7fcf34ef537ac33ee1ac626ca1587a0a7e8e51561e5514f8cb36afa1c5102b3bab604051610104906102c0565b60405180910390a1565b610116610190565b565b7fcf34ef537ac33ee1ac626ca1587a0a7e8e51561e5514f8cb36afa1c5102b3bab604051610145906102c0565b60405180910390a1565b6101576101c7565b565b7fcf34ef537ac33ee1ac626ca1587a0a7e8e51561e5514f8cb36afa1c5102b3bab60405161018690610328565b60405180910390a1565b7fcf34ef537ac33ee1ac626ca1587a0a7e8e51561e5514f8cb36afa1c5102b3bab6040516101bd90610258565b60405180910390a1565b7fcf34ef537ac33ee1ac626ca1587a0a7e8e51561e5514f8cb36afa1c5102b3bab6040516101f490610328565b60405180910390a1565b5f82825260208201905092915050565b7f59657965000000000000000000000000000000000000000000000000000000005f82015250565b5f6102426004836101fe565b915061024d8261020e565b602082019050919050565b5f6020820190508181035f83015261026f81610236565b9050919050565b7f45727a69000000000000000000000000000000000000000000000000000000005f82015250565b5f6102aa6004836101fe565b91506102b582610276565b602082019050919050565b5f6020820190508181035f8301526102d78161029e565b9050919050565b7f42616261000000000000000000000000000000000000000000000000000000005f82015250565b5f6103126004836101fe565b915061031d826102de565b602082019050919050565b5f6020820190508181035f83015261033f81610306565b905091905056fea26469706673582212206bd231de58cff3ba7e9ac092a701fa65ea7a39fa0475912a62aa406d1e29ffd364736f6c63430008220033","linkReferences":{}},"methodIdentifiers":{"baba()":"fa030ef1","callParent()":"572e47ae","callParentSuper()":"b92a50e0","hip()":"370ea142","pop()":"a4ece52c","yeye()":"0ca21e9c"},"id":57}