{"abi":[{"type":"function","name":"hip","inputs":[],"outputs":[],"stateMutability":"nonpayable"},{"type":"function","name":"pop","inputs":[],"outputs":[],"stateMutability":"nonpayable"},{"type":"function","name":"yeye","inputs":[],"outputs":[],"stateMutability":"nonpayable"},{"type":"event","name":"Log","inputs":[{"name":"msg","type":"string","indexed":false,"internalType":"string"}],"anonymous":false}],"bytecode":{"object":"0x6080604052348015600e575f5ffd5b506101b48061001c5f395ff3fe608060405234801561000f575f5ffd5b506004361061003f575f3560e01c80630ca21e9c14610043578063370ea1421461004d578063a4ece52c14610057575b5f5ffd5b61004b610061565b005b610055610098565b005b61005f6100cf565b005b7fcf34ef537ac33ee1ac626ca1587a0a7e8e51561e5514f8cb36afa1c5102b3bab60405161008e90610160565b60405180910390a1565b7fcf34ef537ac33ee1ac626ca1587a0a7e8e51561e5514f8cb36afa1c5102b3bab6040516100c590610160565b60405180910390a1565b7fcf34ef537ac33ee1ac626ca1587a0a7e8e51561e5514f8cb36afa1c5102b3bab6040516100fc90610160565b60405180910390a1565b5f82825260208201905092915050565b7f59657965000000000000000000000000000000000000000000000000000000005f82015250565b5f61014a600483610106565b915061015582610116565b602082019050919050565b5f6020820190508181035f8301526101778161013e565b905091905056fea264697066735822122045d98cd3a9c46c4a2603678c61b3cf2d30375e51a8d1f5d588b2a9ee1cae48dd64736f6c63430008220033","linkReferences":{}},"methodIdentifiers":{"hip()":"370ea142","pop()":"a4ece52c","yeye()":"0ca21e9c"},"id":57}