{"abi":[{"type":"function","name":"getExactDividedBy2And3","inputs":[{"name":"_dividend","type":"uint256","internalType":"uint256"}],"outputs":[{"name":"","type":"uint256","internalType":"uint256"},{"name":"","type":"uint256","internalType":"uint256"}],"stateMutability":"pure"},{"type":"function","name":"getExactDividedBy2And3WithoutModifier","inputs":[{"name":"_dividend","type":"uint256","internalType":"uint256"}],"outputs":[{"name":"","type":"uint256","internalType":"uint256"},{"name":"","type":"uint256","internalType":"uint256"}],"stateMutability":"pure"}],"bytecode":{"object":"0x6080604052348015600e575f5ffd5b506102688061001c5f395ff3fe608060405234801561000f575f5ffd5b5060043610610034575f3560e01c80634534a43814610038578063d2406c7814610069575b5f5ffd5b610052600480360381019061004d9190610144565b61009a565b60405161006092919061017e565b60405180910390f35b610083600480360381019061007e9190610144565b6100de565b60405161009192919061017e565b60405180910390f35b5f5f825f6002826100ab91906101d2565b1480156100c357505f6003826100c191906101d2565b145b6100cb575f5ffd5b6100d4846100de565b9250925050915091565b5f5f5f6002846100ee9190610202565b90505f6003856100fe9190610202565b90508181935093505050915091565b5f5ffd5b5f819050919050565b61012381610111565b811461012d575f5ffd5b50565b5f8135905061013e8161011a565b92915050565b5f602082840312156101595761015861010d565b5b5f61016684828501610130565b91505092915050565b61017881610111565b82525050565b5f6040820190506101915f83018561016f565b61019e602083018461016f565b9392505050565b7f4e487b71000000000000000000000000000000000000000000000000000000005f52601260045260245ffd5b5f6101dc82610111565b91506101e783610111565b9250826101f7576101f66101a5565b5b828206905092915050565b5f61020c82610111565b915061021783610111565b925082610227576102266101a5565b5b82820490509291505056fea264697066735822122038dcc04530e41e98b803a9a6ba90f6ecc528ac8dd67c7f6b037940f29379cfd064736f6c63430008220033","linkReferences":{}},"methodIdentifiers":{"getExactDividedBy2And3(uint256)":"4534a438","getExactDividedBy2And3WithoutModifier(uint256)":"d2406c78"},"id":58}