{"abi":[{"type":"function","name":"initStudent1","inputs":[],"outputs":[],"stateMutability":"nonpayable"},{"type":"function","name":"initStudent2","inputs":[],"outputs":[],"stateMutability":"nonpayable"},{"type":"function","name":"initStudent3","inputs":[],"outputs":[],"stateMutability":"nonpayable"},{"type":"function","name":"initStudent4","inputs":[],"outputs":[],"stateMutability":"nonpayable"}],"bytecode":{"object":"0x6080604052348015600e575f5ffd5b5061012b8061001c5f395ff3fe6080604052348015600e575f5ffd5b50600436106044575f3560e01c80631a8d7dc31460485780635a4236b11460505780639ebb8d20146058578063a8b63e6f146060575b5f5ffd5b604e6068565b005b6056607d565b005b605e60ac565b005b606660db565b005b60015f5f018190555060505f60010181905550565b604051806040016040528060038152602001605a8152505f5f820151815f015560208201518160010155905050565b604051806040016040528060048152602001603c8152505f5f820151815f015560208201518160010155905050565b5f5f9050600b815f0181905550606481600101819055505056fea2646970667358221220001384e9fe7f44ed70a7b8ed734773c67f13a5b31adb9893456c159f18ac4dd964736f6c63430008220033","linkReferences":{}},"methodIdentifiers":{"initStudent1()":"a8b63e6f","initStudent2()":"1a8d7dc3","initStudent3()":"5a4236b1","initStudent4()":"9ebb8d20"},"id":49}