{"abi":[{"type":"function","name":"allPairs","inputs":[{"name":"","type":"uint256","internalType":"uint256"}],"outputs":[{"name":"","type":"address","internalType":"address"}],"stateMutability":"view"},{"type":"function","name":"calculateAddr","inputs":[{"name":"tokenA","type":"address","internalType":"address"},{"name":"tokenB","type":"address","internalType":"address"}],"outputs":[{"name":"predictedAddress","type":"address","internalType":"address"}],"stateMutability":"view"},{"type":"function","name":"createPair2","inputs":[{"name":"tokenA","type":"address","internalType":"address"},{"name":"tokenB","type":"address","internalType":"address"}],"outputs":[{"name":"pairAddr","type":"address","internalType":"address"}],"stateMutability":"nonpayable"},{"type":"function","name":"getPair","inputs":[{"name":"","type":"address","internalType":"address"},{"name":"","type":"address","internalType":"address"}],"outputs":[{"name":"","type":"address","internalType":"address"}],"stateMutability":"view"}],"bytecode":{"object":"0x6080604052348015600e575f5ffd5b50610d518061001c5f395ff3fe608060405234801561000f575f5ffd5b506004361061004a575f3560e01c80631e3dd18b1461004e578063938501871461007e578063df06b188146100ae578063e6a43905146100de575b5f5ffd5b6100686004803603810190610063919061065a565b61010e565b60405161007591906106c4565b60405180910390f35b61009860048036038101906100939190610707565b610149565b6040516100a591906106c4565b60405180910390f35b6100c860048036038101906100c39190610707565b610494565b6040516100d591906106c4565b60405180910390f35b6100f860048036038101906100f39190610707565b6105da565b60405161010591906106c4565b60405180910390f35b6001818154811061011d575f80fd5b905f5260205f20015f915054906101000a900473ffffffffffffffffffffffffffffffffffffffff1681565b5f8173ffffffffffffffffffffffffffffffffffffffff168373ffffffffffffffffffffffffffffffffffffffff16036101b8576040517f08c379a00000000000000000000000000000000000000000000000000000000081526004016101af9061079f565b60405180910390fd5b5f5f8373ffffffffffffffffffffffffffffffffffffffff168573ffffffffffffffffffffffffffffffffffffffff16106101f45783856101f7565b84845b915091505f828260405160200161020f929190610802565b6040516020818303038152906040528051906020012090505f8160405161023590610616565b8190604051809103905ff5905080158015610252573d5f5f3e3d5ffd5b5090508073ffffffffffffffffffffffffffffffffffffffff1663485cc95588886040518363ffffffff1660e01b815260040161029092919061082d565b5f604051808303815f87803b1580156102a7575f5ffd5b505af11580156102b9573d5f5f3e3d5ffd5b50505050809450600185908060018154018082558091505060019003905f5260205f20015f9091909190916101000a81548173ffffffffffffffffffffffffffffffffffffffff021916908373ffffffffffffffffffffffffffffffffffffffff160217905550845f5f8973ffffffffffffffffffffffffffffffffffffffff1673ffffffffffffffffffffffffffffffffffffffff1681526020019081526020015f205f8873ffffffffffffffffffffffffffffffffffffffff1673ffffffffffffffffffffffffffffffffffffffff1681526020019081526020015f205f6101000a81548173ffffffffffffffffffffffffffffffffffffffff021916908373ffffffffffffffffffffffffffffffffffffffff160217905550845f5f8873ffffffffffffffffffffffffffffffffffffffff1673ffffffffffffffffffffffffffffffffffffffff1681526020019081526020015f205f8973ffffffffffffffffffffffffffffffffffffffff1673ffffffffffffffffffffffffffffffffffffffff1681526020019081526020015f205f6101000a81548173ffffffffffffffffffffffffffffffffffffffff021916908373ffffffffffffffffffffffffffffffffffffffff1602179055505050505092915050565b5f8173ffffffffffffffffffffffffffffffffffffffff168373ffffffffffffffffffffffffffffffffffffffff1603610503576040517f08c379a00000000000000000000000000000000000000000000000000000000081526004016104fa9061079f565b60405180910390fd5b5f5f8373ffffffffffffffffffffffffffffffffffffffff168573ffffffffffffffffffffffffffffffffffffffff161061053f578385610542565b84845b915091505f828260405160200161055a929190610802565b60405160208183030381529060405280519060200120905060ff60f81b30826040518060200161058990610616565b6020820181038252601f19601f82011660405250805190602001206040516020016105b794939291906108c8565b604051602081830303815290604052805190602001205f1c935050505092915050565b5f602052815f5260405f20602052805f5260405f205f915091509054906101000a900473ffffffffffffffffffffffffffffffffffffffff1681565b6104068061091683390190565b5f5ffd5b5f819050919050565b61063981610627565b8114610643575f5ffd5b50565b5f8135905061065481610630565b92915050565b5f6020828403121561066f5761066e610623565b5b5f61067c84828501610646565b91505092915050565b5f73ffffffffffffffffffffffffffffffffffffffff82169050919050565b5f6106ae82610685565b9050919050565b6106be816106a4565b82525050565b5f6020820190506106d75f8301846106b5565b92915050565b6106e6816106a4565b81146106f0575f5ffd5b50565b5f81359050610701816106dd565b92915050565b5f5f6040838503121561071d5761071c610623565b5b5f61072a858286016106f3565b925050602061073b858286016106f3565b9150509250929050565b5f82825260208201905092915050565b7f4944454e544943414c5f414444524553534553000000000000000000000000005f82015250565b5f610789601383610745565b915061079482610755565b602082019050919050565b5f6020820190508181035f8301526107b68161077d565b9050919050565b5f8160601b9050919050565b5f6107d3826107bd565b9050919050565b5f6107e4826107c9565b9050919050565b6107fc6107f7826106a4565b6107da565b82525050565b5f61080d82856107eb565b60148201915061081d82846107eb565b6014820191508190509392505050565b5f6040820190506108405f8301856106b5565b61084d60208301846106b5565b9392505050565b5f7fff0000000000000000000000000000000000000000000000000000000000000082169050919050565b5f819050919050565b61089961089482610854565b61087f565b82525050565b5f819050919050565b5f819050919050565b6108c26108bd8261089f565b6108a8565b82525050565b5f6108d38287610888565b6001820191506108e382866107eb565b6014820191506108f382856108b1565b60208201915061090382846108b1565b6020820191508190509594505050505056fe6080604052335f5f6101000a81548173ffffffffffffffffffffffffffffffffffffffff021916908373ffffffffffffffffffffffffffffffffffffffff1602179055506103b6806100505f395ff3fe608060405234801561000f575f5ffd5b506004361061004a575f3560e01c80630dfe16811461004e578063485cc9551461006c578063c45a015514610088578063d21220a7146100a6575b5f5ffd5b6100566100c4565b6040516100639190610283565b60405180910390f35b610086600480360381019061008191906102ca565b6100e9565b005b6100906101fb565b60405161009d9190610283565b60405180910390f35b6100ae61021f565b6040516100bb9190610283565b60405180910390f35b60015f9054906101000a900473ffffffffffffffffffffffffffffffffffffffff1681565b5f5f9054906101000a900473ffffffffffffffffffffffffffffffffffffffff1673ffffffffffffffffffffffffffffffffffffffff163373ffffffffffffffffffffffffffffffffffffffff1614610177576040517f08c379a000000000000000000000000000000000000000000000000000000000815260040161016e90610362565b60405180910390fd5b8160015f6101000a81548173ffffffffffffffffffffffffffffffffffffffff021916908373ffffffffffffffffffffffffffffffffffffffff1602179055508060025f6101000a81548173ffffffffffffffffffffffffffffffffffffffff021916908373ffffffffffffffffffffffffffffffffffffffff1602179055505050565b5f5f9054906101000a900473ffffffffffffffffffffffffffffffffffffffff1681565b60025f9054906101000a900473ffffffffffffffffffffffffffffffffffffffff1681565b5f73ffffffffffffffffffffffffffffffffffffffff82169050919050565b5f61026d82610244565b9050919050565b61027d81610263565b82525050565b5f6020820190506102965f830184610274565b92915050565b5f5ffd5b6102a981610263565b81146102b3575f5ffd5b50565b5f813590506102c4816102a0565b92915050565b5f5f604083850312156102e0576102df61029c565b5b5f6102ed858286016102b6565b92505060206102fe858286016102b6565b9150509250929050565b5f82825260208201905092915050565b7f556e697377617056323a20464f5242494444454e0000000000000000000000005f82015250565b5f61034c601483610308565b915061035782610318565b602082019050919050565b5f6020820190508181035f83015261037981610340565b905091905056fea2646970667358221220024debf466609d8536da9df41e0334c505c3d3c34ac7a132195752bb31a2fa4a64736f6c63430008220033a2646970667358221220dec540e26b3e498a83b5ab9696966ea87dc47f13ecda826e022757c8ad53718d64736f6c63430008220033","linkReferences":{}},"methodIdentifiers":{"allPairs(uint256)":"1e3dd18b","calculateAddr(address,address)":"df06b188","createPair2(address,address)":"93850187","getPair(address,address)":"e6a43905"},"id":71}