{"abi":[{"type":"constructor","inputs":[],"stateMutability":"payable"},{"type":"function","name":"factory","inputs":[],"outputs":[{"name":"","type":"address","internalType":"address"}],"stateMutability":"view"},{"type":"function","name":"initialize","inputs":[{"name":"_token0","type":"address","internalType":"address"},{"name":"_token1","type":"address","internalType":"address"}],"outputs":[],"stateMutability":"nonpayable"},{"type":"function","name":"token0","inputs":[],"outputs":[{"name":"","type":"address","internalType":"address"}],"stateMutability":"view"},{"type":"function","name":"token1","inputs":[],"outputs":[{"name":"","type":"address","internalType":"address"}],"stateMutability":"view"}],"bytecode":{"object":"0x6080604052335f5f6101000a81548173ffffffffffffffffffffffffffffffffffffffff021916908373ffffffffffffffffffffffffffffffffffffffff1602179055506103b6806100505f395ff3fe608060405234801561000f575f5ffd5b506004361061004a575f3560e01c80630dfe16811461004e578063485cc9551461006c578063c45a015514610088578063d21220a7146100a6575b5f5ffd5b6100566100c4565b6040516100639190610283565b60405180910390f35b610086600480360381019061008191906102ca565b6100e9565b005b6100906101fb565b60405161009d9190610283565b60405180910390f35b6100ae61021f565b6040516100bb9190610283565b60405180910390f35b60015f9054906101000a900473ffffffffffffffffffffffffffffffffffffffff1681565b5f5f9054906101000a900473ffffffffffffffffffffffffffffffffffffffff1673ffffffffffffffffffffffffffffffffffffffff163373ffffffffffffffffffffffffffffffffffffffff1614610177576040517f08c379a000000000000000000000000000000000000000000000000000000000815260040161016e90610362565b60405180910390fd5b8160015f6101000a81548173ffffffffffffffffffffffffffffffffffffffff021916908373ffffffffffffffffffffffffffffffffffffffff1602179055508060025f6101000a81548173ffffffffffffffffffffffffffffffffffffffff021916908373ffffffffffffffffffffffffffffffffffffffff1602179055505050565b5f5f9054906101000a900473ffffffffffffffffffffffffffffffffffffffff1681565b60025f9054906101000a900473ffffffffffffffffffffffffffffffffffffffff1681565b5f73ffffffffffffffffffffffffffffffffffffffff82169050919050565b5f61026d82610244565b9050919050565b61027d81610263565b82525050565b5f6020820190506102965f830184610274565b92915050565b5f5ffd5b6102a981610263565b81146102b3575f5ffd5b50565b5f813590506102c4816102a0565b92915050565b5f5f604083850312156102e0576102df61029c565b5b5f6102ed858286016102b6565b92505060206102fe858286016102b6565b9150509250929050565b5f82825260208201905092915050565b7f556e697377617056323a20464f5242494444454e0000000000000000000000005f82015250565b5f61034c601483610308565b915061035782610318565b602082019050919050565b5f6020820190508181035f83015261037981610340565b905091905056fea2646970667358221220024debf466609d8536da9df41e0334c505c3d3c34ac7a132195752bb31a2fa4a64736f6c63430008220033","linkReferences":{}},"methodIdentifiers":{"factory()":"c45a0155","initialize(address,address)":"485cc955","token0()":"0dfe1681","token1()":"d21220a7"},"id":71}