{"abi":[{"type":"function","name":"allPairs","inputs":[{"name":"","type":"uint256","internalType":"uint256"}],"outputs":[{"name":"","type":"address","internalType":"address"}],"stateMutability":"view"},{"type":"function","name":"createPair","inputs":[{"name":"tokenA","type":"address","internalType":"address"},{"name":"tokenB","type":"address","internalType":"address"}],"outputs":[{"name":"pairAddr","type":"address","internalType":"address"}],"stateMutability":"nonpayable"},{"type":"function","name":"getPair","inputs":[{"name":"","type":"address","internalType":"address"},{"name":"","type":"address","internalType":"address"}],"outputs":[{"name":"","type":"address","internalType":"address"}],"stateMutability":"view"}],"bytecode":{"object":"0x6080604052348015600e575f5ffd5b506109428061001c5f395ff3fe608060405234801561000f575f5ffd5b506004361061003f575f3560e01c80631e3dd18b14610043578063c9c6539614610073578063e6a43905146100a3575b5f5ffd5b61005d600480360381019061005891906103f4565b6100d3565b60405161006a919061045e565b60405180910390f35b61008d600480360381019061008891906104a1565b61010e565b60405161009a919061045e565b60405180910390f35b6100bd60048036038101906100b891906104a1565b610374565b6040516100ca919061045e565b60405180910390f35b600181815481106100e2575f80fd5b905f5260205f20015f915054906101000a900473ffffffffffffffffffffffffffffffffffffffff1681565b5f5f60405161011c906103b0565b604051809103905ff080158015610135573d5f5f3e3d5ffd5b5090508073ffffffffffffffffffffffffffffffffffffffff1663485cc95585856040518363ffffffff1660e01b81526004016101739291906104df565b5f604051808303815f87803b15801561018a575f5ffd5b505af115801561019c573d5f5f3e3d5ffd5b50505050809150600182908060018154018082558091505060019003905f5260205f20015f9091909190916101000a81548173ffffffffffffffffffffffffffffffffffffffff021916908373ffffffffffffffffffffffffffffffffffffffff160217905550815f5f8673ffffffffffffffffffffffffffffffffffffffff1673ffffffffffffffffffffffffffffffffffffffff1681526020019081526020015f205f8573ffffffffffffffffffffffffffffffffffffffff1673ffffffffffffffffffffffffffffffffffffffff1681526020019081526020015f205f6101000a81548173ffffffffffffffffffffffffffffffffffffffff021916908373ffffffffffffffffffffffffffffffffffffffff160217905550815f5f8573ffffffffffffffffffffffffffffffffffffffff1673ffffffffffffffffffffffffffffffffffffffff1681526020019081526020015f205f8673ffffffffffffffffffffffffffffffffffffffff1673ffffffffffffffffffffffffffffffffffffffff1681526020019081526020015f205f6101000a81548173ffffffffffffffffffffffffffffffffffffffff021916908373ffffffffffffffffffffffffffffffffffffffff1602179055505092915050565b5f602052815f5260405f20602052805f5260405f205f915091509054906101000a900473ffffffffffffffffffffffffffffffffffffffff1681565b6104068061050783390190565b5f5ffd5b5f819050919050565b6103d3816103c1565b81146103dd575f5ffd5b50565b5f813590506103ee816103ca565b92915050565b5f60208284031215610409576104086103bd565b5b5f610416848285016103e0565b91505092915050565b5f73ffffffffffffffffffffffffffffffffffffffff82169050919050565b5f6104488261041f565b9050919050565b6104588161043e565b82525050565b5f6020820190506104715f83018461044f565b92915050565b6104808161043e565b811461048a575f5ffd5b50565b5f8135905061049b81610477565b92915050565b5f5f604083850312156104b7576104b66103bd565b5b5f6104c48582860161048d565b92505060206104d58582860161048d565b9150509250929050565b5f6040820190506104f25f83018561044f565b6104ff602083018461044f565b939250505056fe6080604052335f5f6101000a81548173ffffffffffffffffffffffffffffffffffffffff021916908373ffffffffffffffffffffffffffffffffffffffff1602179055506103b6806100505f395ff3fe608060405234801561000f575f5ffd5b506004361061004a575f3560e01c80630dfe16811461004e578063485cc9551461006c578063c45a015514610088578063d21220a7146100a6575b5f5ffd5b6100566100c4565b6040516100639190610283565b60405180910390f35b610086600480360381019061008191906102ca565b6100e9565b005b6100906101fb565b60405161009d9190610283565b60405180910390f35b6100ae61021f565b6040516100bb9190610283565b60405180910390f35b60015f9054906101000a900473ffffffffffffffffffffffffffffffffffffffff1681565b5f5f9054906101000a900473ffffffffffffffffffffffffffffffffffffffff1673ffffffffffffffffffffffffffffffffffffffff163373ffffffffffffffffffffffffffffffffffffffff1614610177576040517f08c379a000000000000000000000000000000000000000000000000000000000815260040161016e90610362565b60405180910390fd5b8160015f6101000a81548173ffffffffffffffffffffffffffffffffffffffff021916908373ffffffffffffffffffffffffffffffffffffffff1602179055508060025f6101000a81548173ffffffffffffffffffffffffffffffffffffffff021916908373ffffffffffffffffffffffffffffffffffffffff1602179055505050565b5f5f9054906101000a900473ffffffffffffffffffffffffffffffffffffffff1681565b60025f9054906101000a900473ffffffffffffffffffffffffffffffffffffffff1681565b5f73ffffffffffffffffffffffffffffffffffffffff82169050919050565b5f61026d82610244565b9050919050565b61027d81610263565b82525050565b5f6020820190506102965f830184610274565b92915050565b5f5ffd5b6102a981610263565b81146102b3575f5ffd5b50565b5f813590506102c4816102a0565b92915050565b5f5f604083850312156102e0576102df61029c565b5b5f6102ed858286016102b6565b92505060206102fe858286016102b6565b9150509250929050565b5f82825260208201905092915050565b7f556e697377617056323a20464f5242494444454e0000000000000000000000005f82015250565b5f61034c601483610308565b915061035782610318565b602082019050919050565b5f6020820190508181035f83015261037981610340565b905091905056fea264697066735822122006a200b648d58082db2a8561a4a95ef3e14df146514691f87de4719448daed0364736f6c63430008220033a26469706673582212202381c4aeaed40606e75ebf4722be328547eacdc8b9e23794a83ec098260eee8d64736f6c63430008220033","linkReferences":{}},"methodIdentifiers":{"allPairs(uint256)":"1e3dd18b","createPair(address,address)":"c9c65396","getPair(address,address)":"e6a43905"},"id":70}