{"abi":[{"type":"function","name":"doWhileTest","inputs":[],"outputs":[{"name":"","type":"uint256","internalType":"uint256"}],"stateMutability":"pure"},{"type":"function","name":"forLoopTest","inputs":[],"outputs":[{"name":"","type":"uint256","internalType":"uint256"}],"stateMutability":"pure"},{"type":"function","name":"ifElseTest","inputs":[{"name":"_number","type":"uint256","internalType":"uint256"}],"outputs":[{"name":"","type":"bool","internalType":"bool"}],"stateMutability":"pure"},{"type":"function","name":"insertionSort","inputs":[{"name":"a","type":"uint256[]","internalType":"uint256[]"}],"outputs":[{"name":"","type":"uint256[]","internalType":"uint256[]"}],"stateMutability":"pure"},{"type":"function","name":"insertionSortWrong","inputs":[{"name":"a","type":"uint256[]","internalType":"uint256[]"}],"outputs":[{"name":"","type":"uint256[]","internalType":"uint256[]"}],"stateMutability":"pure"},{"type":"function","name":"ternaryTest","inputs":[{"name":"x","type":"uint256","internalType":"uint256"},{"name":"y","type":"uint256","internalType":"uint256"}],"outputs":[{"name":"","type":"uint256","internalType":"uint256"}],"stateMutability":"pure"},{"type":"function","name":"whileTest","inputs":[],"outputs":[{"name":"","type":"uint256","internalType":"uint256"}],"stateMutability":"pure"}],"bytecode":{"object":"0x6080604052348015600e575f5ffd5b506109598061001c5f395ff3fe608060405234801561000f575f5ffd5b506004361061007b575f3560e01c80636188a6c0116100595780636188a6c0146100eb5780636297206f1461011b5780637141fb001461014b578063b0cfa9fc1461017b5761007b565b8063287663201461007f5780632bbacaaa146100af5780635d14639d146100cd575b5f5ffd5b610099600480360381019061009491906104c3565b610199565b6040516100a69190610510565b60405180910390f35b6100b76101b2565b6040516100c49190610510565b60405180910390f35b6100d56101e8565b6040516100e29190610510565b60405180910390f35b61010560048036038101906101009190610679565b610224565b6040516101129190610777565b60405180910390f35b61013560048036038101906101309190610679565b61032f565b6040516101429190610777565b60405180910390f35b61016560048036038101906101609190610797565b61042f565b60405161017291906107dc565b60405180910390f35b610183610449565b6040516101909190610510565b60405180910390f35b5f818310156101a857816101aa565b825b905092915050565b5f5f5f90505f5f90505b80826101c89190610822565b915080806101d590610855565b915050600a81106101bc57819250505090565b5f5f5f90505f5f90505b600a81101561021c5780826102079190610822565b9150808061021490610855565b9150506101f2565b819250505090565b60605f600190505b8251811015610326575f8382815181106102495761024861089c565b5b602002602001015190505f60018361026191906108c9565b90505b5f811015801561028d57508481815181106102825761028161089c565b5b602002602001015182105b156102eb578481815181106102a5576102a461089c565b5b6020026020010151856001836102bb9190610822565b815181106102cc576102cb61089c565b5b60200260200101818152505080806102e3906108fc565b915050610264565b81856001836102fa9190610822565b8151811061030b5761030a61089c565b5b6020026020010181815250505050808060010191505061022c565b50819050919050565b60605f600190505b8251811015610426575f8382815181106103545761035361089c565b5b602002602001015190505f8290505b6001811015801561039957508460018261037d91906108c9565b8151811061038e5761038d61089c565b5b602002602001015182105b156103f757846001826103ac91906108c9565b815181106103bd576103bc61089c565b5b60200260200101518582815181106103d8576103d761089c565b5b60200260200101818152505080806103ef906108fc565b915050610363565b8185828151811061040b5761040a61089c565b5b60200260200101818152505050508080600101915050610337565b50819050919050565b5f5f82036104405760019050610444565b5f90505b919050565b5f5f5f90505f5f90505b600a8110156104775780826104689190610822565b91508080600101915050610453565b508091505090565b5f604051905090565b5f5ffd5b5f5ffd5b5f819050919050565b6104a281610490565b81146104ac575f5ffd5b50565b5f813590506104bd81610499565b92915050565b5f5f604083850312156104d9576104d8610488565b5b5f6104e6858286016104af565b92505060206104f7858286016104af565b9150509250929050565b61050a81610490565b82525050565b5f6020820190506105235f830184610501565b92915050565b5f5ffd5b5f601f19601f8301169050919050565b7f4e487b71000000000000000000000000000000000000000000000000000000005f52604160045260245ffd5b6105738261052d565b810181811067ffffffffffffffff821117156105925761059161053d565b5b80604052505050565b5f6105a461047f565b90506105b0828261056a565b919050565b5f67ffffffffffffffff8211156105cf576105ce61053d565b5b602082029050602081019050919050565b5f5ffd5b5f6105f66105f1846105b5565b61059b565b90508083825260208201905060208402830185811115610619576106186105e0565b5b835b81811015610642578061062e88826104af565b84526020840193505060208101905061061b565b5050509392505050565b5f82601f8301126106605761065f610529565b5b81356106708482602086016105e4565b91505092915050565b5f6020828403121561068e5761068d610488565b5b5f82013567ffffffffffffffff8111156106ab576106aa61048c565b5b6106b78482850161064c565b91505092915050565b5f81519050919050565b5f82825260208201905092915050565b5f819050602082019050919050565b6106f281610490565b82525050565b5f61070383836106e9565b60208301905092915050565b5f602082019050919050565b5f610725826106c0565b61072f81856106ca565b935061073a836106da565b805f5b8381101561076a57815161075188826106f8565b975061075c8361070f565b92505060018101905061073d565b5085935050505092915050565b5f6020820190508181035f83015261078f818461071b565b905092915050565b5f602082840312156107ac576107ab610488565b5b5f6107b9848285016104af565b91505092915050565b5f8115159050919050565b6107d6816107c2565b82525050565b5f6020820190506107ef5f8301846107cd565b92915050565b7f4e487b71000000000000000000000000000000000000000000000000000000005f52601160045260245ffd5b5f61082c82610490565b915061083783610490565b925082820190508082111561084f5761084e6107f5565b5b92915050565b5f61085f82610490565b91507fffffffffffffffffffffffffffffffffffffffffffffffffffffffffffffffff8203610891576108906107f5565b5b600182019050919050565b7f4e487b71000000000000000000000000000000000000000000000000000000005f52603260045260245ffd5b5f6108d382610490565b91506108de83610490565b92508282039050818111156108f6576108f56107f5565b5b92915050565b5f61090682610490565b91505f8203610918576109176107f5565b5b60018203905091905056fea2646970667358221220d201d5b184bf5066c37c6cff4593123cd7c5d7ab4f5f0b162f7cf499857d836564736f6c63430008220033","linkReferences":{}},"methodIdentifiers":{"doWhileTest()":"2bbacaaa","forLoopTest()":"b0cfa9fc","ifElseTest(uint256)":"7141fb00","insertionSort(uint256[])":"6297206f","insertionSortWrong(uint256[])":"6188a6c0","ternaryTest(uint256,uint256)":"28766320","whileTest()":"5d14639d"},"id":53}